:020000040800F2
:10000000080900206D020008971400085713000823
:100010009514000891060008DD1600080000000095
:100020000000000000000000000000009B14000819
:10003000BD06000800000000991400089D14000887
:10004000870200088702000887020008870200086C
:10005000870200088702000887020008870200085C
:10006000870200088702000887020008870200084C
:10007000870200088702000887020008870200083C
:10008000870200088702000887020008870200082C
:10009000870200088702000887020008870200081C
:1000A000870200088702000887020008870200080C
:1000B00087020008870200088702000887020008FC
:1000C00087020008870200088702000887020008EC
:1000D00087020008870200088702000887020008DC
:1000E00087020008870200088702000887020008CC
:1000F00087020008870200088702000887020008BC
:1001000087020008870200088702000887020008AB
:10011000870200088702000887020008870200089B
:10012000870200088702000887020008870200088B
:10013000870200080000000000000000870200089D
:10014000870200088702000887020008870200086B
:10015000870200088702000887020008870200085B
:10016000870200088702000887020008870200084B
:1001700087020008870200088702000800000000CC
:1001800000000000870200080000000000000000DE
:10019000870200080000000000000000870200083D
:1001A00000000000000000000000000087020008BE
:1001B00087020008870200088702000887020008FB
:1001C0008702000800F002F800F040F80AA090E86A
:1001D000000C82448344AAF10107DA4501D100F002
:1001E00035F8AFF2090EBAE80F0013F0010F18BF8F
:1001F000FB1A43F0010318474C1E00006C1E000060
:10020000103A24BF78C878C1FAD8520724BF30C842
:1002100030C144BF04680C60704700000023002414
:1002200000250026103A28BF78C1FBD8520728BF06
:1002300030C148BF0B6070471FB501F0F1FD9DE86C
:10024000030000F047F91FBD10B510BD00F09EF986
:100250001146FFF7F1FF01F003FC00F0BCF903B415
:10026000FFF7F2FF03BC00F0EDF9000009488047FA
:1002700009480047FEE7FEE7FEE7FEE7FEE7FEE788
:10028000FEE7FEE7FEE7FEE704480549054A064BA0
:100290007047000049150008C5010008080100204A
:1002A00008090020080500200805002070B5064652
:1002B00000F0F4F8056806F10B0020F00704B442E2
:1002C0009CBF002070BD2B466A68BAB11068A0427E
:1002D00010D304F1080188423CBF5068586007D32E
:1002E0005168101941601168091B01605860146061
:1002F000101D70BD13465268002AE7D121462846DA
:1003000000F0D4F80028DED170BD70B50446051F9A
:1003100000F0C4F80068002C14BF446870BD002CC5
:1003200018BFAC423CBF20466468F8D301680A1885
:10033000AA4218BF456003D12A68054611440160EE
:1003400028684119A1421CBF6C6070BD616869607A
:1003500021680844286070BD53EA020C00F06980EF
:100360002DE9F04B4FF00006002B1FBFB3FA83F5C9
:1003700003FA05F424FA05F65E4012BF1643B2FAFA
:1003800082F502FA05F4C5F120051EBF22FA05FC2C
:1003900044EA0C04203556EA044C4FEA144418BFD2
:1003A000641C4FF000084FF00009904271EB030C01
:1003B00039D3002919BFB1FA81F701FA07F6B0FA6B
:1003C00080F700FA07F6C7F120071EBF20FA07FCE6
:1003D00046EA0C062037B6FBF4FCA7EB0507103FF6
:1003E00007F01F0BCBF120060CFA0BFB2CFA06F6DC
:1003F00044BFB3460026202FA4BF5E464FF0000B3B
:100400005BEA060C08BF4FF0010B19EB0B09ABFBC5
:10041000027C48EB0608C01B06FB02CC0BFB03CC9E
:1004200071EB0C01C1E70B46024641464846BDE868
:10043000F08B13B54FF000004FF00001AFF30080D8
:10044000BDE81C4070474FF0000200B513469446CB
:100450009646203922BFA0E80C50A0E80C50B1F11C
:100460002001BFF4F7AF090728BFA0E80C5048BF30
:100470000CC05DF804EB890028BF40F8042B08BFCE
:10048000704748BF20F8022B11F0804F18BF00F8CA
:10049000012B704770477047704700000048704755
:1004A000B0000020704770477047704738B5044669
:1004B0000A4600206946AFF30080002808BF38BD17
:1004C00002460099204600F03FF8012038BD012087
:1004D00000F054B8F8B5AFF30080054600200C4694
:1004E000102000BF0646A819A0420DD93246694621
:1004F0000020AFF30080070008BF00F03FF800982D
:10050000A04218BF0546C419FFF7C8FF056007469B
:10051000F01D20F007004619284600F00AF8B44202
:1005200008BFF8BDA21B31463868BDE8F84000F0AE
:100530000BB800210160C0E901107047102070471E
:1005400000487047A8000020034640688C460028F9
:1005500018BF88423CBF03464068F8D31868184467
:10056000884207D00CF1030020F00700001D411A5B
:10057000521A0146081D0A60FFF7C7BE10B500F009
:1005800039F8BDE8104000F02FB870477546FFF706
:10059000D7FFAE4605006946534620F00700854662
:1005A00018B020B5FFF770FEBDE820404FF0000600
:1005B0004FF000074FF000084FF0000B21F007014B
:1005C000AC46ACE8C009ACE8C009ACE8C009ACE88E
:1005D000C0098D46704710B50446AFF30080204631
:1005E000BDE81040FFF73BBE002801D000F02AB85C
:1005F0007047000010B5012805D0002103A000F0CD
:1006000027F8012010BD09A1F8E70000534947521F
:10061000544D454D3A204F7574206F6620686561D2
:1006200070206D656D6F7279000000003A2048659A
:100630006170206D656D6F727920636F7272757075
:100640007465640001491820ABBEFEE72600020075
:1006500070B505460C460A2000E06D1C00F011F84C
:1006600035B128780028F8D102E0641C00F009F8C0
:1006700014B120780028F8D1BDE870400A20AFF30B
:10068000008008B569468DF800000320ABBE08BDA8
:10069000FEE7000030B54FF6FF70074D08E000BFE1
:1006A00011F8013B040A4340DBB235F81300604007
:1006B000521E92B2F4D230BD2A1E000870470000CC
:1006C0002DE9F84FDFF8ACA1002201240AF1040B58
:1006D00003254FF00F090BF1040E00BF0B6804FA5D
:1006E00002F63340B3426ED10F7907F00307012FB2
:1006F00001D0022F16D187684FEA420805FA08FC9C
:1007000027EA0C07D1F80CC00CFA08FC4CEA070CDD
:10071000C0F808C04768B7430E79C6F30016964084
:100720003E4346600E79F643B6070AD0C6684FEAE4
:10073000420C05FA0CF7BE438F6807FA0CF73743F3
:10074000C7600E7906F00306022E10D1D60800EB22
:100750008608D8F8206057074FEAD76C09FA0CF7DB
:10076000BE430F6907FA0CF73743C8F820700668D4
:100770004FEA420C05FA0CF7BE430F7907F0030766
:1007800007FA0CF7374307604E6816F4403F6BD00A
:10079000394E376847F480473760366822F00307E0
:1007A00006F480460096354E07EB060CDCF8086828
:1007B00097074FEA177809FA08F7BE43304FB84257
:1007C00002D100271FE04FE02E4FB84201D1012790
:1007D00019E02D4FB84201D1022714E02B4FB84247
:1007E00001D103270FE02A4FB84201D104270AE0C4
:1007F000284FB84201D1052705E0274FB84201D163
:10080000062700E0072707FA08F73743CCF80878EF
:10081000DAF800605746D1F804C09E435FEACC3C4A
:1008200000D51E433E60DBF800605F46D1F804C08F
:100830009E435FEA8C3C00D51E433E60DEF80060BC
:100840007746D1F804C09E435FEACC2C00D51E4306
:100850003E60084F0C373E68D1F804C09E435FEA03
:100860008C2C00D51E433E60521C102AFFF436AF7C
:10087000BDE8F88F003C01404438024000300140A0
:10088000000002400004024000080240000C024048
:1008900000100240001402400018024000690840A5
:1008A00000D001207047426921EA02030A4043EA6E
:1008B0000241816170470AB1816170470904FBE719
:1008C00001488068704700001000002002488168DD
:1008D0000278114481607047100000200B4810B569
:1008E000016841F400710160016841F480610160B8
:1008F000016841F480710160032000F07DF804205C
:1009000000F006F800F024F8002010BD003C024082
:1009100070B50D4D04464FF47A712878B1FBF0F0B4
:100920000A490968B1FBF0F000F0C8FB48B9102C87
:1009300007D200222146501E00F03EF800206C60D5
:1009400070BD012070BD0000100000201C000020C0
:10095000184808B5016841F480410160006800F45E
:10096000804000901348001F016841F080510160F1
:1009700000680C2100F0805000900022484200F0F6
:100980001BF8002205216FF00A0000F015F8002284
:1009900003216FF0090000F00FF801210022881FE9
:1009A00000F00AF800220221BDE80840081F00F00C
:1009B00003B8000044380240F0B40E4B1B680C46EC
:1009C000C3F30223C3F10705042D00D90425191D23
:1009D000072901D2002300E0DB1E012606FA05F1FB
:1009E000491E214099409E40761E16403143F0BC7E
:1009F00000F075BE0CED00E0064900F00702086843
:100A00004FF6FF03184040EA0220034A10430860F3
:100A1000704700000CED00E00000FA052DE9F843F6
:100A20001748016841F0805101600068154F00F0DF
:100A30008050012600903E64FFF742FF05464FF4C8
:100A40007A78114C05E000BFFFF73AFF401B4045A4
:100A50000DD86068C003F7D57E64FFF731FF054607
:100A6000464607E0FFF72CFF401BB04202D90320A7
:100A7000BDE8F88360688003F4D50020F8E7000043
:100A80004038024000000E42007000402DE9F0475F
:100A90000E46050065D0DFF81481D8F80000F7B2E3
:100AA00000F00F00B04207D288F80070D8F80000BC
:100AB00000F00F00B04254D128683D4C810712D598
:100AC000400703D5206840F4E050206028780007F4
:100AD00003D5206840F4604020602068A96820F0B9
:100AE000F000084320602878C0072DD0304968689E
:100AF0000839012812D0022813D0032811D0096820
:100B0000890700292DDA216821F0030101432160C2
:100B1000FFF7D6FE814641F2883A0EE00968890364
:100B2000EFE709688901ECE7FFF7CAFEA0EB0901CE
:100B3000514502D90320BDE8F0872068696800F0BC
:100B40000C00B0EB810FEFD1D8F80010404601F057
:100B50000F01B14207D90770006800F00F00B042E2
:100B600001D00120E7E72878400705D52068E9682B
:100B700020F4E050084320602878000706D520685C
:100B8000296920F4604040EAC100206000F038F894
:100B90002168084AC1F30311515CC8400649086046
:100BA00006480068FFF7B4FE0020C4E7003C02409E
:100BB000083802402A2000081C00002014000020F1
:100BC0000448054900680968044AC1F38221515C60
:100BD000C84070471C000020083802403A20000836
:100BE0000448054900680968044AC1F34231515C70
:100BF000C84070471C000020083802403A20000816
:100C0000224810B5006810F00C02214815D0214987
:100C1000042A11D01D4C241F082A0FD00C2A0CD1F5
:100C20002268236802F03F025B0221D52068C0F3EE
:100C30008810A0FB010120E0084610BD226823684F
:100C400002F03F025B0205D52068C0F38810A0FBCC
:100C5000010104E02168C1F38811A1FB0001002318
:100C6000FFF77AFB2168C1F30141491C49000AE002
:100C70002168C1F38811A1FB00010023FFF76CFB81
:100C80002168C1F30271B0FBF1F010BD08380240D9
:100C90000024F40040787D01F0B51F4C16460D4647
:100CA0001D4B002102220327283C0028186887B02A
:100CB00019D040F004001860186800F00400059096
:100CC00010020090CDE90121CDE903716946134876
:100CD000FFF7F6FC206845EAC60120F0784008439B
:100CE000206007B0F0BD40F001001860186800F007
:100CF000010005904FF480700090CDE90121CDE90D
:100D0000037169460648FFF7DBFC2068354320F095
:100D1000EC602843E4E7000030380240000802405D
:100D2000000002402DE9F84F04007DD0DFF878B3D1
:100D30002078ABF10407C007A7F1040550D0DBF819
:100D400000105846C1F3810101290FD00168C1F399
:100D50008101022902D13968490207D40068C0F331
:100D60008100032809D13868400206D5286880032D
:100D700036D560680028D8D032E06068B0F5803F92
:100D800010D0B0F5A02F286810D020F48030286053
:100D9000286820F4802028606068A0B1FFF790FDEB
:100DA00006460CE0286840F48030F4E740F48020E8
:100DB0002860F7E7FFF784FD801B642876D8286851
:100DC0008003F7D50CE0FFF77BFD064605E000BF8A
:100DD000FFF776FD801B6428F0D828688003F7D4DD
:100DE0002078DFF8C89280074FF0000A44D5DBF87E
:100DF0000010584611F00C0F0FD00168C1F38101AB
:100E0000022902D13968490207D50068C0F3810080
:100E100003280AD13868400207D42868800715D50E
:100E2000E068012800D111E03AE1E068B0B10120AA
:100E3000C9F80000FFF744FD064604E0FFF740FD57
:100E4000801B0228BAD828688007F7D5286821694E
:100E500020F0F80040EAC10028600DE0C9F800A0C9
:100E6000FFF72EFD064604E0FFF72AFD801B02284F
:100E70001CD828688007F7D42078000727D5DFF82A
:100E800028828B48616908F16C0881B101210160F9
:100E9000FFF716FD064604E0FFF712FD801B02284F
:100EA00004D8D8F800008007F6D510E089E0C0F833
:100EB00000A0FFF705FD064605E000BFFFF700FDB7
:100EC000801B02287DD8D8F800008007F6D420784F
:100ED000400769D574484FF0000838300068C000FA
:100EE0000BD471483830016841F0805101600068CE
:100EF0004FF0010800F0805000906E4E3068C00541
:100F000011D4306840F480703060FFF7D9FC009055
:100F100006E000BFFFF7D4FC0099401A022850D821
:100F20003068C005F6D5604EA068683601280FD03D
:100F30000528306810D020F001003060306820F0C3
:100F400004003060A068B8B1FFF7BAFC00900FE071
:100F5000306840F00100F4E740F004003060F7E74B
:100F6000FFF7AEFC0099411A41F28830814264D803
:100F700030688007F4D50EE0FFF7A2FC009007E090
:100F8000FFF79EFC0099411A41F28830814254D803
:100F900030688007F4D4B8F1000F05D042483830EB
:100FA000016821F080510160A069A8B3DBF800104E
:100FB000C1F38101022947D00228C9F860A005D0F9
:100FC00000E03AE0FFF77CFC044639E0FFF778FCEC
:100FD000064604E0FFF774FC801B02282DD8286821
:100FE0008001F7D4F4E907010843E168324A49086F
:100FF00002EB0141A26841EA82110843217C40EAE8
:101000000160217D40EA017038600120C9F860006C
:10101000FFF756FC044606E044E000BFFFF750FC33
:10102000001B022809D828688001F7D53AE000BFE4
:10103000FFF746FC001B022802D90320BDE8F88F09
:1010400028688001F4D42DE00128F7D03868E269DF
:1010500000F48001914223D1226A00F03F019142C5
:101060001ED147F6C071626A0140B1EB821F17D1F1
:10107000A26A4FF0FF3300F4403103EB5202B1EBB0
:10108000024F0DD194F82C2000F07061B1EB026F8B
:1010900006D194F8301000F0E040B0EB017F01D0B1
:1010A0000120CBE70020C9E7083802400000474292
:1010B000800E4742007000400000FFFF10B5401E48
:1010C000B0F1807F01D3012010BD4FF0E0246061BA
:1010D0000F21601700F003FB0020A06107202061B2
:1010E000002010BD70B5040004D094F83D00002528
:1010F00010B106E0012070BD84F83C50204600F09D
:1011000023F8242084F83D002068C16821F40051B0
:10111000C160204600F020FA2068016921F4904166
:1011200001612068416921F02A0141612068C1689C
:1011300041F40051C1602564202084F83D0084F80A
:101140003E00002070BD0000F0B587B004461421B9
:101150006846FFF778F91F4F236800221E490224D2
:10116000032507261D48BB4213D11B4B14331F68B0
:1011700047F010071F601B6803F0100305930B680E
:1011800043F001030B60096801F001010591690258
:1011900015E0134FBB421AD10F4B10331F6847F4B1
:1011A00000371F601B6803F4003305930B6843F09E
:1011B00001030B60096801F0010105910C21CDE9E3
:1011C000001402AB694683E86400FFF779FA07B0C0
:1011D000F0BD000000100140303802400000024025
:1011E000004400402DE9F84F044690F83E009A462E
:1011F00016460D46202853D1FDB1F6B194F83C00B7
:1012000001284DD0012084F83C00002727642220CB
:1012100084F83E002763FFF753FBA6858146E685E9
:10122000A0684FF48058404501D1206940B12E4656
:101230005FF0000584F83C7027E00120BDE8F88FDE
:101240000026F7E74B46002220212046CDF800A0DB
:1012500000F008FA08B10320F0E726B1A068404585
:101260001BD038B108E020684068C0F3080025F8BA
:10127000020B07E0206980B12068406800F07F0021
:1012800006F8010BE08D401EE085E08D0028D9D1E5
:10129000202084F83E000020D0E720684068EFE777
:1012A0000220CBE72DE9F843044690F83D001F46A5
:1012B00016460D4620284CD1C5B1BEB194F83C006D
:1012C000012846D0012084F83C004FF00008C4F803
:1012D0004080212084F83D00FFF7F2FAA684814681
:1012E000E684A068B0F5805F03D004E00120BDE88B
:1012F000F883206928B12E465FF0000584F83C8011
:101300000EE00026FAE78021204600F0ABF9A0B9F4
:10131000AEB116F8010B21684860E08C401EE084F5
:10132000E08C4B464FF0000200970028EBD14FF0C5
:101330004001204600F096F930B10320D7E735F898
:10134000020BC0F30800E6E7202084F83D000020EF
:10135000CDE70220CBE7FEE72DE9F04F87B014215F
:101360006846FFF770F846480024016841F0040120
:101370000160016801F004010591016841F001017B
:101380000160016801F001010591016841F002016D
:101390000160016801F002010591016841F0080156
:1013A00001600068DFF8DC8000F0080043F6474584
:1013B0000590002229464046FFF77DFADFF8C890E5
:1013C0004FF40046002231464846FFF774FADFF832
:1013D000BCA0002204215046FFF76DFADFF8B0B040
:1013E0004FF47E77002239465846FFF764FA00959D
:1013F0000125CDE90154694640460394FFF760F9A1
:10140000F320CDE90004694648460294FFF758F9F5
:101410003020CDE90004694640460294FFF750F9B8
:101420004FF20740CDE90004694658460294FFF7A1
:1014300047F9280200900220CDE90104039469468F
:1014400048460494FFF73CF90096CDE901546946FB
:1014500048460394FFF734F904200090CDE9015485
:10146000694650460394FFF72BF90097CDE90154E4
:10147000694658460394FFF723F907B0BDE8F08F9B
:10148000303802400008024000000240000C0240D8
:1014900000040240FEE7FEE770477047FFF716BA08
:1014A00030B593B034216846FEF7CDFF14210DA866
:1014B000FEF7C9FF22480025016841F08051016014
:1014C000006800F0805012901E48016841F44041CD
:1014D00001600068022400F4404012900120039053
:1014E00010200490009406940820CDE90750B42001
:1014F000CDE909040B9468460C94FFF713FC08B17E
:1015000072B6FEE7FFF78AFA08B172B6FEE70DA9D8
:101510000F2081E831004FF4A05010904FF480501C
:10152000119005210DA8FFF7B1FA08B172B6FEE7D8
:10153000002211461046FFF7AFFB13B030BD00008C
:1015400040380240007000400248016841F47001D8
:101550000160704788ED00E070B5044600680169DD
:10156000E26821F44051114301612169A068E269F8
:1015700008436169114308432168CA6849F20C6352
:101580009A430243CA6020684169A26921F440710C
:101590001143416131492068884202D03049884274
:1015A00002D1FFF71DFB01E0FFF70AFBE269002310
:1015B000192164253226B2F5004F626828D0A0FBBD
:1015C0000101930F9200FEF7C7FE0146B0FBF5F054
:1015D0006FF01802504301EB800006EB0010B0FBE7
:1015E000F5F000F0F002B1FBF5F002EB0012B1FBF8
:1015F000F5F06FF01803584301EB800006EB001084
:10160000B0FBF5F000F00F0021681044886070BD59
:10161000A0FB010192185B41FEF79EFE0146B0FB64
:10162000F5F00201B1FBF5F06FF01803584301EB40
:10163000800006EBC000B0FBF5F000F0F80002EB14
:101640004002B1FBF5F0584301EB800006EBC0000F
:10165000B0FBF5F000F00700D6E7000000100140F5
:10166000001401402DE9F041984617460E46044605
:10167000069D27E0681C25D02DB1FFF721F9A0EBCE
:101680000800A8421ED920680C3050E8001F21F441
:10169000D07140E80012002AF5D12068143050E8DB
:1016A000001F21F0010140E80012002AF5D120209E
:1016B00084F83D0084F83E00002084F83C000320BC
:1016C000BDE8F0812068006836EA000004D0002000
:1016D000B842CFD00020F3E70120F9E7FEE7090781
:1016E000090E002804DB00F1E02080F800147047A8
:1016F00000F00F0000F1E02080F8141D70472DE984
:10170000F04100251E4688460446022920D0521C7E
:1017100097B2F008A080710701D0401CA08080B271
:10172000401D80B2A080FEF7C1FD2060A1680123AA
:1017300009790170216881F8018020792168401FB2
:10174000887020684078012869D002286AD133E087
:1017500042F21170104487B2DBE73946A06800F00E
:101760004BF940B1082D06D2206803FA05F2C17882
:101770009143C17005E0216803FA05F2C87810436F
:10178000C8703946A06800F037F948B1082D07D372
:101790002068A5F1080203FA02F20179914306E0FC
:1017A0002068A5F1080203FA02F2017911436D1CC9
:1017B0007F1C0171EDB2BFB2761EB6B2CDD231E060
:1017C0003946A06800F018F938B1082D05D2206814
:1017D00003FA05F2C178114304E0206803FA05F228
:1017E000C1789143C1703946A06800F005F950B145
:1017F000082D08D32068A5F1080103FA01F1027948
:101800000A43027107E02068A5F1080203FA02F218
:101810000179914301716D1C7F1CEDB2BFB2761E40
:10182000B6B2CDD2A0882168801E82B22046FEF7D3
:1018300031FFE080A2882168114401F8020CA288DF
:101840002168E0881144000A01F8010CBDE8F0812C
:101850002DE9F041044608201E4615460F46A0809B
:10186000FEF724FD20603846370A05280CD049F6DB
:101870004140284481B23A46A06800F0CFF921687F
:1018800006204870BDE8F081681C81B23A46A06825
:1018900000F0C4F9216805204870A068216800792B
:1018A00008702168280A88702068C5702068077150
:1018B00020684671A0882168801E82B22046FEF70B
:1018C000E9FE2268010A384BD171216888712168CC
:1018D0003648CA78102AD5D2DFE802F0080F151C66
:1018E00022282D32373C414750565B6008794FF42F
:1018F000004100F001022E483CE008794FF480617D
:1019000000F0010204E008794FF4006100F00102E8
:1019100018462FE008794FF4805100F00102F7E7F4
:101920000879042100F00102224823E0097901F03E
:10193000010208211EE0097901F00102102119E0DD
:10194000097901F00102202114E0097901F0010276
:1019500040210FE0097901F0010280210AE00979B4
:1019600001F001024FF4807104E0097901F00102F5
:101970004FF40071BDE8F041FEF79DBF08794FF4C8
:10198000005100F00102C3E70879012100F00102D3
:10199000BEE70879022100F00102B9E708790421C5
:1019A00000F00102B4E70000000802400004024019
:1019B00000000240000C024010B504460820A08040
:1019C000102918D12168102048702168100A8870E9
:1019D0002068C2702168180A087120684371A088C5
:1019E0002168801E82B22046FEF754FE2268010A5A
:1019F000D1712168887110BD00B544F62062914212
:101A000004D200F0E9F8002800D0007800BD70B5DD
:101A100004460D460C20FEF749FC296881602060D1
:101A200070BD000070B5044644F620600D4681424A
:101A300011D20C20FEF73AFC45802168097901712A
:101A400000210170816005498A682AB1CA689060E6
:101A5000C8608868206070BD8860F9E700000020D9
:101A6000FEF73CFFFFF71CFDFFF776FC26482549F3
:101A7000002401604FF4E131C0E901140C25C46079
:101A8000C0E904458461C461FFF72CFB08B172B65C
:101A9000FEE71D481D49443001604FF41651C0E96E
:101AA0000114C460C0E904458461C461FFF71AFBF6
:101AB00008B172B6FEE701211548FFF7B3FF144CD9
:101AC0000121241F02256068017129461048FFF793
:101AD000A9FF6D1C112DF8DB012542F21076A91922
:101AE0000B48FFF79FFF6D1C112DF8DB0849081FFD
:101AF000FFF78DFF206800F09FF8206800F00AF8DB
:101B0000F8E70000001001402000002000440040E1
:101B1000040000202DE9F047044600F065F8206835
:101B2000418890F80180808891FA91F947BAB8F11C
:101B3000100F17D1642F4AD20026354649F6414A84
:101B40000EE02168F01D084409EB0501008842BA47
:101B500001EB0A0081B2A06800F060F86D1CB61CB1
:101B6000BD42EEDB2068FEF7D0FB0020A08040469F
:101B7000B8F1050F24D00BDC012802D0B8F1020F18
:101B800025D101463B464A462046FFF7B8FD0AE00C
:101B9000062815D0B8F1100F19D101463B464A4628
:101BA0002046FFF709FFA288002A10D0C823094861
:101BB0002168FFF777FB2068BDE8F047FEF7A5BB7B
:101BC00001463B464A462046FFF742FEEBE7BDE8AA
:101BD000F08700002000002003E042888A4202D003
:101BE00080680028F9D1704710B504460820FEF738
:101BF0005DFB206001460822A280C8230548FFF74C
:101C0000F1FA002805D1BDE8104040210248FEF756
:101C10004ABE10BD2000002000080240134600B557
:101C200044F62062914206D2FFF7D6FF0BB1FF21A6
:101C300000E00021017000BD70B5764D0446012121
:101C40002846FEF72BFE0028A06842F2117101D051
:101C5000002200E0FF22FFF7E1FF02212846FEF705
:101C60001DFE0028A06842F2127101D0002200E09F
:101C7000FF22FFF7D3FF10212846FEF70FFE0028B2
:101C8000A06842F213714FF47F4601D0002200E0B9
:101C90003246FFF7C3FF20212846FEF7FFFD00284C
:101CA000A06842F2147101D0002200E03246FFF732
:101CB000B5FF40212846FEF7F1FD0028A06842F25A
:101CC000157101D0002200E03246FFF7A7FF802106
:101CD0002846FEF7E3FD0028A06842F2167101D005
:101CE000002200E03246FFF799FF4B4D10212846B5
:101CF000FEF7D4FD0028A06842F2177101D000223F
:101D000000E03246FFF78AFF20212846FEF7C6FD95
:101D10000028A06842F2187101D0002200E032468B
:101D2000FFF77CFF3D4D4FF400412846FEF7B6FD1E
:101D30000028A06842F2197101D0002200E032466A
:101D4000FFF76CFF4FF480412846FEF7A7FD0028FF
:101D5000A06842F21A7101D0002200E03246FFF77B
:101D60005DFF4FF400512846FEF798FD0028A0685B
:101D700042F21B7101D0002200E03246FFF74EFF15
:101D80004FF480512846FEF789FD0028A06842F2F2
:101D90001C7101D0002200E03246FFF73FFF4FF4F4
:101DA00080612846FEF77AFD0028A06842F21D7186
:101DB00001D0002200E03246FFF730FF0421284620
:101DC000FEF76CFD0028A06842F21E7101D00022CF
:101DD00000E03246FFF722FF02212846FEF75EFDB3
:101DE0000028A06842F21F7101D0002200E03246B4
:101DF000FFF714FF01212846FEF750FD0028A068D8
:101E000042F2207101D0002200E03246BDE870406D
:101E1000FFF704BF00000240000802400004024037
:101E20004FF04070E1EE100A70470000C1C081C160
:101E3000400101C3C003800241C201C6C006800741
:101E400041C70005C1C581C4400401CCC00C800D50
:101E500041CD000FC1CF81CE400E000AC1CA81CB57
:101E6000400B01C9C009800841C801D8C0188019B9
:101E700041D9001BC1DB81DA401A001EC1DE81DFBF
:101E8000401F01DDC01D801C41DC0014C1D481D580
:101E9000401501D7C017801641D601D2C012801359
:101EA00041D30011C1D181D0401001F0C030803148
:101EB00041F10033C1F381F240320036C1F681F7BF
:101EC000403701F5C035803441F4003CC1FC81FD50
:101ED000403D01FFC03F803E41FE01FAC03A803BD9
:101EE00041FB0039C1F981F840380028C1E881E997
:101EF000402901EBC02B802A41EA01EEC02E802F41
:101F000041EF002DC1ED81EC402C01E4C02480257F
:101F100041E50027C1E781E640260022C1E281E3D6
:101F2000402301E1C021802041E001A0C060806128
:101F300041A10063C1A381A240620066C1A681A73E
:101F4000406701A5C065806441A4006CC1AC81AD4F
:101F5000406D01AFC06F806E41AE01AAC06A806B58
:101F600041AB0069C1A981A840680078C1B881B9B6
:101F7000407901BBC07B807A41BA01BEC07E807FC0
:101F800041BF007DC1BD81BC407C01B4C07480757F
:101F900041B50077C1B781B640760072C1B281B356
:101FA000407301B1C071807041B00050C190819107
:101FB00040510193C053805241920196C0568057C0
:101FC00041970055C19581944054019CC05C805D4F
:101FD000419D005FC19F819E405E005AC19A819BD6
:101FE000405B0199C059805841980188C048804998
:101FF0004189004BC18B818A404A004EC18E818F3E
:10200000404F018DC04D804C418C0044C18481857E
:1020100040450187C047804641860182C0428043D7
:1020200041830041C18181804040000000000000E8
:102030000000010203040607080900000000010275
:1020400003040000642000080000002020000000BD
:10205000000200088420000820000020E80800009A
:102060001C0200080000000000000000000000004A
:10207000000000000100000010000000000000004F
:042080000024F40044
:04000005080001C529
:00000001FF
